{
  "_format": "hh-sol-artifact-1",
  "contractName": "ArcPaymentRole",
  "sourceName": "contracts/ArcPaymentRole.sol",
  "abi": [
    {
      "inputs": [
        {
          "internalType": "address",
          "name": "_usdc",
          "type": "address"
        }
      ],
      "stateMutability": "nonpayable",
      "type": "constructor"
    },
    {
      "inputs": [
        {
          "internalType": "address",
          "name": "owner",
          "type": "address"
        }
      ],
      "name": "OwnableInvalidOwner",
      "type": "error"
    },
    {
      "inputs": [
        {
          "internalType": "address",
          "name": "account",
          "type": "address"
        }
      ],
      "name": "OwnableUnauthorizedAccount",
      "type": "error"
    },
    {
      "inputs": [],
      "name": "ReentrancyGuardReentrantCall",
      "type": "error"
    },
    {
      "anonymous": false,
      "inputs": [
        {
          "indexed": true,
          "internalType": "address",
          "name": "previousOwner",
          "type": "address"
        },
        {
          "indexed": true,
          "internalType": "address",
          "name": "newOwner",
          "type": "address"
        }
      ],
      "name": "OwnershipTransferred",
      "type": "event"
    },
    {
      "anonymous": false,
      "inputs": [
        {
          "indexed": true,
          "internalType": "string",
          "name": "roleId",
          "type": "string"
        },
        {
          "indexed": true,
          "internalType": "address",
          "name": "recipient",
          "type": "address"
        },
        {
          "indexed": false,
          "internalType": "uint256",
          "name": "amount",
          "type": "uint256"
        },
        {
          "indexed": false,
          "internalType": "uint256",
          "name": "developerFee",
          "type": "uint256"
        },
        {
          "indexed": false,
          "internalType": "uint256",
          "name": "timestamp",
          "type": "uint256"
        }
      ],
      "name": "PaymentExecuted",
      "type": "event"
    },
    {
      "anonymous": false,
      "inputs": [
        {
          "indexed": true,
          "internalType": "string",
          "name": "roleId",
          "type": "string"
        },
        {
          "indexed": true,
          "internalType": "address",
          "name": "sponsor",
          "type": "address"
        },
        {
          "indexed": false,
          "internalType": "string",
          "name": "name",
          "type": "string"
        },
        {
          "indexed": false,
          "internalType": "uint256",
          "name": "timestamp",
          "type": "uint256"
        }
      ],
      "name": "RoleCreated",
      "type": "event"
    },
    {
      "anonymous": false,
      "inputs": [
        {
          "indexed": true,
          "internalType": "string",
          "name": "roleId",
          "type": "string"
        },
        {
          "indexed": true,
          "internalType": "address",
          "name": "leftoverRecipient",
          "type": "address"
        },
        {
          "indexed": false,
          "internalType": "uint256",
          "name": "leftoverAmount",
          "type": "uint256"
        },
        {
          "indexed": false,
          "internalType": "uint256",
          "name": "timestamp",
          "type": "uint256"
        }
      ],
      "name": "RoleExpired",
      "type": "event"
    },
    {
      "anonymous": false,
      "inputs": [
        {
          "indexed": true,
          "internalType": "string",
          "name": "roleId",
          "type": "string"
        },
        {
          "indexed": true,
          "internalType": "address",
          "name": "donor",
          "type": "address"
        },
        {
          "indexed": false,
          "internalType": "uint256",
          "name": "amount",
          "type": "uint256"
        },
        {
          "indexed": false,
          "internalType": "uint256",
          "name": "timestamp",
          "type": "uint256"
        }
      ],
      "name": "RoleFunded",
      "type": "event"
    },
    {
      "inputs": [
        {
          "internalType": "string",
          "name": "roleName",
          "type": "string"
        },
        {
          "internalType": "uint256",
          "name": "startTime",
          "type": "uint256"
        },
        {
          "internalType": "uint256",
          "name": "expiryTime",
          "type": "uint256"
        },
        {
          "internalType": "address[]",
          "name": "recipients",
          "type": "address[]"
        },
        {
          "internalType": "uint256[]",
          "name": "amounts",
          "type": "uint256[]"
        },
        {
          "internalType": "uint256[]",
          "name": "scheduledTimes",
          "type": "uint256[]"
        },
        {
          "internalType": "string[]",
          "name": "ensNames",
          "type": "string[]"
        },
        {
          "internalType": "address",
          "name": "leftoverRecipient",
          "type": "address"
        }
      ],
      "name": "createRole",
      "outputs": [
        {
          "internalType": "string",
          "name": "roleId",
          "type": "string"
        }
      ],
      "stateMutability": "nonpayable",
      "type": "function"
    },
    {
      "inputs": [],
      "name": "developer",
      "outputs": [
        {
          "internalType": "address",
          "name": "",
          "type": "address"
        }
      ],
      "stateMutability": "view",
      "type": "function"
    },
    {
      "inputs": [],
      "name": "developerFeePercent",
      "outputs": [
        {
          "internalType": "uint256",
          "name": "",
          "type": "uint256"
        }
      ],
      "stateMutability": "view",
      "type": "function"
    },
    {
      "inputs": [
        {
          "internalType": "string",
          "name": "roleId",
          "type": "string"
        }
      ],
      "name": "executePayments",
      "outputs": [],
      "stateMutability": "nonpayable",
      "type": "function"
    },
    {
      "inputs": [
        {
          "internalType": "string",
          "name": "",
          "type": "string"
        },
        {
          "internalType": "uint256",
          "name": "",
          "type": "uint256"
        }
      ],
      "name": "executionHistory",
      "outputs": [
        {
          "internalType": "address",
          "name": "recipient",
          "type": "address"
        },
        {
          "internalType": "uint256",
          "name": "amount",
          "type": "uint256"
        },
        {
          "internalType": "uint256",
          "name": "timestamp",
          "type": "uint256"
        },
        {
          "internalType": "string",
          "name": "ensName",
          "type": "string"
        }
      ],
      "stateMutability": "view",
      "type": "function"
    },
    {
      "inputs": [
        {
          "internalType": "string",
          "name": "roleId",
          "type": "string"
        },
        {
          "internalType": "uint256",
          "name": "amount",
          "type": "uint256"
        }
      ],
      "name": "fundRole",
      "outputs": [],
      "stateMutability": "nonpayable",
      "type": "function"
    },
    {
      "inputs": [
        {
          "internalType": "string",
          "name": "",
          "type": "string"
        },
        {
          "internalType": "uint256",
          "name": "",
          "type": "uint256"
        }
      ],
      "name": "fundingAmounts",
      "outputs": [
        {
          "internalType": "uint256",
          "name": "",
          "type": "uint256"
        }
      ],
      "stateMutability": "view",
      "type": "function"
    },
    {
      "inputs": [
        {
          "internalType": "string",
          "name": "",
          "type": "string"
        },
        {
          "internalType": "uint256",
          "name": "",
          "type": "uint256"
        }
      ],
      "name": "fundingDonors",
      "outputs": [
        {
          "internalType": "address",
          "name": "",
          "type": "address"
        }
      ],
      "stateMutability": "view",
      "type": "function"
    },
    {
      "inputs": [
        {
          "internalType": "string",
          "name": "roleId",
          "type": "string"
        }
      ],
      "name": "getExecutionHistory",
      "outputs": [
        {
          "components": [
            {
              "internalType": "address",
              "name": "recipient",
              "type": "address"
            },
            {
              "internalType": "uint256",
              "name": "amount",
              "type": "uint256"
            },
            {
              "internalType": "uint256",
              "name": "timestamp",
              "type": "uint256"
            },
            {
              "internalType": "string",
              "name": "ensName",
              "type": "string"
            }
          ],
          "internalType": "struct ArcPaymentRole.ExecutedPayment[]",
          "name": "",
          "type": "tuple[]"
        }
      ],
      "stateMutability": "view",
      "type": "function"
    },
    {
      "inputs": [
        {
          "internalType": "string",
          "name": "roleId",
          "type": "string"
        }
      ],
      "name": "getFundingHistory",
      "outputs": [
        {
          "internalType": "address[]",
          "name": "donors",
          "type": "address[]"
        },
        {
          "internalType": "uint256[]",
          "name": "amounts",
          "type": "uint256[]"
        }
      ],
      "stateMutability": "view",
      "type": "function"
    },
    {
      "inputs": [
        {
          "internalType": "string",
          "name": "roleId",
          "type": "string"
        }
      ],
      "name": "getRole",
      "outputs": [
        {
          "internalType": "address",
          "name": "sponsor",
          "type": "address"
        },
        {
          "internalType": "string",
          "name": "name",
          "type": "string"
        },
        {
          "internalType": "uint256",
          "name": "startTime",
          "type": "uint256"
        },
        {
          "internalType": "uint256",
          "name": "expiryTime",
          "type": "uint256"
        },
        {
          "internalType": "uint256",
          "name": "totalFunded",
          "type": "uint256"
        },
        {
          "internalType": "uint256",
          "name": "remainingBalance",
          "type": "uint256"
        },
        {
          "internalType": "address",
          "name": "leftoverRecipient",
          "type": "address"
        },
        {
          "internalType": "bool",
          "name": "active",
          "type": "bool"
        },
        {
          "internalType": "uint256",
          "name": "paymentCount",
          "type": "uint256"
        }
      ],
      "stateMutability": "view",
      "type": "function"
    },
    {
      "inputs": [
        {
          "internalType": "string",
          "name": "roleId",
          "type": "string"
        }
      ],
      "name": "getRolePayments",
      "outputs": [
        {
          "components": [
            {
              "internalType": "address",
              "name": "recipient",
              "type": "address"
            },
            {
              "internalType": "uint256",
              "name": "amount",
              "type": "uint256"
            },
            {
              "internalType": "uint256",
              "name": "scheduledTime",
              "type": "uint256"
            },
            {
              "internalType": "uint256",
              "name": "lastExecuted",
              "type": "uint256"
            },
            {
              "internalType": "bool",
              "name": "active",
              "type": "bool"
            },
            {
              "internalType": "string",
              "name": "ensName",
              "type": "string"
            }
          ],
          "internalType": "struct ArcPaymentRole.PaymentSchedule[]",
          "name": "",
          "type": "tuple[]"
        }
      ],
      "stateMutability": "view",
      "type": "function"
    },
    {
      "inputs": [],
      "name": "owner",
      "outputs": [
        {
          "internalType": "address",
          "name": "",
          "type": "address"
        }
      ],
      "stateMutability": "view",
      "type": "function"
    },
    {
      "inputs": [],
      "name": "renounceOwnership",
      "outputs": [],
      "stateMutability": "nonpayable",
      "type": "function"
    },
    {
      "inputs": [],
      "name": "roleCounter",
      "outputs": [
        {
          "internalType": "uint256",
          "name": "",
          "type": "uint256"
        }
      ],
      "stateMutability": "view",
      "type": "function"
    },
    {
      "inputs": [
        {
          "internalType": "string",
          "name": "",
          "type": "string"
        }
      ],
      "name": "roleExists",
      "outputs": [
        {
          "internalType": "bool",
          "name": "",
          "type": "bool"
        }
      ],
      "stateMutability": "view",
      "type": "function"
    },
    {
      "inputs": [
        {
          "internalType": "string",
          "name": "",
          "type": "string"
        }
      ],
      "name": "roles",
      "outputs": [
        {
          "internalType": "address",
          "name": "sponsor",
          "type": "address"
        },
        {
          "internalType": "string",
          "name": "name",
          "type": "string"
        },
        {
          "internalType": "uint256",
          "name": "startTime",
          "type": "uint256"
        },
        {
          "internalType": "uint256",
          "name": "expiryTime",
          "type": "uint256"
        },
        {
          "internalType": "uint256",
          "name": "totalFunded",
          "type": "uint256"
        },
        {
          "internalType": "uint256",
          "name": "remainingBalance",
          "type": "uint256"
        },
        {
          "internalType": "address",
          "name": "leftoverRecipient",
          "type": "address"
        },
        {
          "internalType": "bool",
          "name": "active",
          "type": "bool"
        },
        {
          "internalType": "uint256",
          "name": "createdAt",
          "type": "uint256"
        }
      ],
      "stateMutability": "view",
      "type": "function"
    },
    {
      "inputs": [
        {
          "internalType": "address",
          "name": "_developer",
          "type": "address"
        }
      ],
      "name": "setDeveloperAddress",
      "outputs": [],
      "stateMutability": "nonpayable",
      "type": "function"
    },
    {
      "inputs": [
        {
          "internalType": "uint256",
          "name": "feePercent",
          "type": "uint256"
        }
      ],
      "name": "setDeveloperFeePercent",
      "outputs": [],
      "stateMutability": "nonpayable",
      "type": "function"
    },
    {
      "inputs": [
        {
          "internalType": "address",
          "name": "newOwner",
          "type": "address"
        }
      ],
      "name": "transferOwnership",
      "outputs": [],
      "stateMutability": "nonpayable",
      "type": "function"
    },
    {
      "inputs": [],
      "name": "usdc",
      "outputs": [
        {
          "internalType": "contract IERC20",
          "name": "",
          "type": "address"
        }
      ],
      "stateMutability": "view",
      "type": "function"
    }
  ],
  "bytecode": "0x608060405260016004556000600a553480156200001b57600080fd5b50604051620028c1380380620028c18339810160408190526200003e916200014d565b33806200006657604051631e4fbdf760e01b8152600060048201526024015b60405180910390fd5b6200007181620000fd565b50600180556001600160a01b038116620000ce5760405162461bcd60e51b815260206004820152601460248201527f496e76616c69642055534443206164647265737300000000000000000000000060448201526064016200005d565b600280546001600160a01b039092166001600160a01b031992831617905560038054909116331790556200017f565b600080546001600160a01b038381166001600160a01b0319831681178455604051919092169283917f8be0079c531659141344cd1fd0a4f28419497f9722a3daafe3b4186f6b6457e09190a35050565b6000602082840312156200016057600080fd5b81516001600160a01b03811681146200017857600080fd5b9392505050565b612732806200018f6000396000f3fe608060405234801561001057600080fd5b50600436106101375760003560e01c8063a1f80dbb116100b8578063ca4b208b1161007c578063ca4b208b146102af578063cb9a1380146102c2578063d00cce41146102d5578063dcc345f214610313578063ee54705814610326578063f2fde38b1461034957600080fd5b8063a1f80dbb1461023f578063bb56873f14610248578063be8e79221461025b578063c13b359e1461027b578063c22413561461029c57600080fd5b80635de5cd52116100ff5780635de5cd52146101cb5780636e9067fb146101de578063715018a61461020657806386785dea1461020e5780638da5cb5b1461022e57600080fd5b80633e413bee1461013c57806341afecc71461016c5780634aa8fcf31461018c5780634d795a601461019f5780634fcd1285146101b4575b600080fd5b60025461014f906001600160a01b031681565b6040516001600160a01b0390911681526020015b60405180910390f35b61017f61017a366004611e49565b61035c565b6040516101639190611ed6565b61014f61019a366004611f80565b6104fa565b6101b26101ad366004611f80565b610541565b005b6101bd60045481565b604051908152602001610163565b6101b26101d9366004611fc5565b610849565b6101f16101ec366004611e49565b6108a0565b60405161016399989796959493929190611fde565b6101b2610a01565b61022161021c366004611e49565b610a15565b6040516101639190612040565b6000546001600160a01b031661014f565b6101bd600a5481565b6101f1610256366004611e49565b610b44565b61026e610269366004612253565b610c3b565b6040516101639190612349565b61028e610289366004611e49565b611249565b604051610163929190612363565b6101bd6102aa366004611f80565b61132d565b60035461014f906001600160a01b031681565b6101b26102d0366004611e49565b61136d565b6103036102e3366004611e49565b805160208183018101805160068252928201919093012091525460ff1681565b6040519015158152602001610163565b6101b26103213660046123e7565b611b53565b610339610334366004611f80565b611bc5565b6040516101639493929190612402565b6101b26103573660046123e7565b611cb0565b606060068260405161036e9190612439565b9081526040519081900360200190205460ff166103a65760405162461bcd60e51b815260040161039d90612455565b60405180910390fd5b6005826040516103b69190612439565b9081526020016040518091039020600701805480602002602001604051908101604052809291908181526020016000905b828210156104ef5760008481526020908190206040805160c0810182526006860290920180546001600160a01b0316835260018101549383019390935260028301549082015260038201546060820152600482015460ff161515608082015260058201805491929160a08401919061045e90612482565b80601f016020809104026020016040519081016040528092919081815260200182805461048a90612482565b80156104d75780601f106104ac576101008083540402835291602001916104d7565b820191906000526020600020905b8154815290600101906020018083116104ba57829003601f168201915b505050505081525050815260200190600101906103e7565b505050509050919050565b8151602081840181018051600982529282019185019190912091905280548290811061052557600080fd5b6000918252602090912001546001600160a01b03169150829050565b610549611ceb565b6006826040516105599190612439565b9081526040519081900360200190205460ff166105885760405162461bcd60e51b815260040161039d90612455565b600081116105d25760405162461bcd60e51b8152602060048201526017602482015276416d6f756e74206d75737420626520706f73697469766560481b604482015260640161039d565b60006005836040516105e49190612439565b908152604051908190036020019020600881015490915060ff1661063f5760405162461bcd60e51b8152602060048201526012602482015271526f6c65206973206e6f742061637469766560701b604482015260640161039d565b806003015442106106855760405162461bcd60e51b815260206004820152601060248201526f149bdb19481a185cc8195e1c1a5c995960821b604482015260640161039d565b6002546040516323b872dd60e01b8152336004820152306024820152604481018490526001600160a01b03909116906323b872dd906064016020604051808303816000875af11580156106dc573d6000803e3d6000fd5b505050506040513d601f19601f8201168201806040525081019061070091906124bc565b6107435760405162461bcd60e51b81526020600482015260146024820152731554d110c81d1c985b9cd9995c8819985a5b195960621b604482015260640161039d565b8181600401600082825461075791906124f4565b925050819055508181600501600082825461077291906124f4565b9091555050604051600890610788908590612439565b908152604051908190036020908101822080546001810182556000918252919020018390556009906107bb908590612439565b9081526040519081900360209081018220805460018101825560009182529190200180546001600160a01b03191633908117909155906107fc908590612439565b60408051918290038220858352426020840152917f646c0db1974a5d70b259f201b8a1f62b80a6b18c72a0c44847d7fa45153b18e5910160405180910390a35061084560018055565b5050565b610851611d15565b600a81111561089b5760405162461bcd60e51b815260206004820152601660248201527546656520746f6f206869676820286d6178203130252960501b604482015260640161039d565b600455565b60006060600080600080600080600060068a6040516108bf9190612439565b9081526040519081900360200190205460ff166108ee5760405162461bcd60e51b815260040161039d90612455565b600060058b6040516109009190612439565b90815260405190819003602001902080546002820154600383015460048401546005850154600686015460088701546007880154600189018054999a506001600160a01b03988916999098939093169260ff90921691889061096190612482565b80601f016020809104026020016040519081016040528092919081815260200182805461098d90612482565b80156109da5780601f106109af576101008083540402835291602001916109da565b820191906000526020600020905b8154815290600101906020018083116109bd57829003601f168201915b50505050509750995099509950995099509950995099509950509193959799909294969850565b610a09611d15565b610a136000611d42565b565b6060600782604051610a279190612439565b9081526020016040518091039020805480602002602001604051908101604052809291908181526020016000905b828210156104ef576000848152602090819020604080516080810182526004860290920180546001600160a01b03168352600181015493830193909352600283015490820152600382018054919291606084019190610ab390612482565b80601f0160208091040260200160405190810160405280929190818152602001828054610adf90612482565b8015610b2c5780601f10610b0157610100808354040283529160200191610b2c565b820191906000526020600020905b815481529060010190602001808311610b0f57829003601f168201915b50505050508152505081526020019060010190610a55565b8051602081830181018051600582529282019190930120915280546001820180546001600160a01b039092169291610b7b90612482565b80601f0160208091040260200160405190810160405280929190818152602001828054610ba790612482565b8015610bf45780601f10610bc957610100808354040283529160200191610bf4565b820191906000526020600020905b815481529060010190602001808311610bd757829003601f168201915b50505060028401546003850154600486015460058701546006880154600889015460099099015497989497939650919450926001600160a01b039091169160ff9091169089565b60606000895111610c8e5760405162461bcd60e51b815260206004820152601960248201527f526f6c65206e616d652063616e6e6f7420626520656d70747900000000000000604482015260640161039d565b868810610cdd5760405162461bcd60e51b815260206004820181905260248201527f53746172742074696d65206d757374206265206265666f726520657870697279604482015260640161039d565b8451865114610d3d5760405162461bcd60e51b815260206004820152602660248201527f526563697069656e747320616e6420616d6f756e7473206c656e677468206d696044820152650e6dac2e8c6d60d31b606482015260840161039d565b8351865114610d9a5760405162461bcd60e51b8152602060048201526024808201527f526563697069656e747320616e642074696d6573206c656e677468206d69736d6044820152630c2e8c6d60e31b606482015260840161039d565b6001600160a01b038216610df05760405162461bcd60e51b815260206004820152601a60248201527f496e76616c6964206c6566746f76657220726563697069656e74000000000000604482015260640161039d565b6040516bffffffffffffffffffffffff193360601b16602082015260340160408051601f19818403018152828252426020840152910160408051601f19818403018152919052600a8054906000610e468361250d565b91905055604051602001610e5c91815260200190565b60408051601f1981840301815290829052610e7b939291602001612526565b6040516020818303038152906040529050600681604051610e9c9190612439565b9081526040519081900360200190205460ff1615610ef55760405162461bcd60e51b8152602060048201526016602482015275526f6c6520494420616c72656164792065786973747360501b604482015260640161039d565b6001600682604051610f079190612439565b908152604051908190036020018120805492151560ff1990931692909217909155600090600590610f39908490612439565b90815260405190819003602001902080546001600160a01b03191633178155905060018101610f688b826125b8565b5060028101899055600381018890556000600582018190556006820180546001600160a01b0319166001600160a01b03861617905560088201805460ff191660011790554260098301555b87518110156111ea5760006001600160a01b0316888281518110610fd957610fd9612678565b60200260200101516001600160a01b03160361102b5760405162461bcd60e51b8152602060048201526011602482015270125b9d985b1a59081c9958da5c1a595b9d607a1b604482015260640161039d565b600087828151811061103f5761103f612678565b60200260200101511161108e5760405162461bcd60e51b8152602060048201526017602482015276416d6f756e74206d75737420626520706f73697469766560481b604482015260640161039d565b816007016040518060c001604052808a84815181106110af576110af612678565b60200260200101516001600160a01b031681526020018984815181106110d7576110d7612678565b602002602001015181526020018884815181106110f6576110f6612678565b602002602001015181526020016000815260200160011515815260200187518410611130576040518060200160405280600081525061114b565b87848151811061114257611142612678565b60200260200101515b90528154600180820184556000938452602093849020835160069093020180546001600160a01b0319166001600160a01b0390931692909217825592820151928101929092556040810151600283015560608101516003830155608081015160048301805460ff191691151591909117905560a081015190919060058201906111d490826125b8565b50505080806111e29061250d565b915050610fb3565b5060405133906111fb908490612439565b60405180910390207f739f5e364e22f8c3c8137438450af4100d0f446134cecd4a021293bf0d3685108c4260405161123492919061268e565b60405180910390a35098975050505050505050565b60608060098360405161125c9190612439565b90815260408051918290036020908101832080548083028501830190935282845291908301828280156112b857602002820191906000526020600020905b81546001600160a01b0316815260019091019060200180831161129a575b505050505091506008836040516112cf9190612439565b908152604080519182900360209081018320805480830285018301909352828452919083018282801561132157602002820191906000526020600020905b81548152602001906001019080831161130d575b50505050509050915091565b8151602081840181018051600882529282019185019190912091905280548290811061135857600080fd5b90600052602060002001600091509150505481565b611375611ceb565b6006816040516113859190612439565b9081526040519081900360200190205460ff166113b45760405162461bcd60e51b815260040161039d90612455565b60006005826040516113c69190612439565b908152604051908190036020019020600881015490915060ff166114215760405162461bcd60e51b8152602060048201526012602482015271526f6c65206973206e6f742061637469766560701b604482015260640161039d565b806002015442101561146c5760405162461bcd60e51b8152602060048201526014602482015273149bdb19481a185cc81b9bdd081cdd185c9d195960621b604482015260640161039d565b60008160050154116114b75760405162461bcd60e51b8152602060048201526014602482015273496e73756666696369656e742062616c616e636560601b604482015260640161039d565b60008060005b60078401548110156118665760008460070182815481106114e0576114e0612678565b60009182526020909120600690910201600481015490915060ff166115055750611854565b8060020154421015801561151b57506003810154155b15611852578060010154856005015410156115785760405162461bcd60e51b815260206004820181905260248201527f496e73756666696369656e742062616c616e636520666f72207061796d656e74604482015260640161039d565b60006064600454836001015461158e91906126b0565b61159891906126c7565b905060008183600101546115ac91906126e9565b90508260010154866115be91906124f4565b95506115ca82866124f4565b600254845460405163a9059cbb60e01b81526001600160a01b03918216600482015260248101859052929750169063a9059cbb906044016020604051808303816000875af1158015611620573d6000803e3d6000fd5b505050506040513d601f19601f8201168201806040525081019061164491906124bc565b6116905760405162461bcd60e51b815260206004820152601760248201527f5061796d656e74207472616e73666572206661696c6564000000000000000000604482015260640161039d565b4260038401556040516007906116a7908a90612439565b908152602001604051809103902060405180608001604052808560000160009054906101000a90046001600160a01b03166001600160a01b0316815260200183815260200142815260200185600501805461170190612482565b80601f016020809104026020016040519081016040528092919081815260200182805461172d90612482565b801561177a5780601f1061174f5761010080835404028352916020019161177a565b820191906000526020600020905b81548152906001019060200180831161175d57829003601f168201915b5050509190925250508154600180820184556000938452602093849020835160049093020180546001600160a01b0319166001600160a01b03909316929092178255928201519281019290925560408101516002830155606081015190919060038201906117e890826125b8565b505083546040516001600160a01b039091169150611807908a90612439565b60408051918290038220848352602083018690524283830152905190917f346e910b7a52097e4565d11535e43583f7d81d73254b298339c2bef63260b9b5919081900360600190a350505b505b8061185e8161250d565b9150506114bd565b508115611951578183600501600082825461188191906126e9565b909155505080156119515760025460035460405163a9059cbb60e01b81526001600160a01b0391821660048201526024810184905291169063a9059cbb906044016020604051808303816000875af11580156118e1573d6000803e3d6000fd5b505050506040513d601f19601f8201168201806040525081019061190591906124bc565b6119515760405162461bcd60e51b815260206004820152601d60248201527f446576656c6f70657220666565207472616e73666572206661696c6564000000604482015260640161039d565b600160005b60078501548110156119e05784600701818154811061197757611977612678565b600091825260209091206004600690920201015460ff1680156119c057508460070181815481106119aa576119aa612678565b9060005260206000209060060201600301546000145b156119ce57600091506119e0565b806119d88161250d565b915050611956565b5080806119f1575083600301544210155b15611b435760088401805460ff19169055600584015415611b43576002546006850154600586015460405163a9059cbb60e01b81526001600160a01b039283166004820152602481019190915291169063a9059cbb906044016020604051808303816000875af1158015611a69573d6000803e3d6000fd5b505050506040513d601f19601f82011682018060405250810190611a8d91906124bc565b611ad95760405162461bcd60e51b815260206004820152601860248201527f4c6566746f766572207472616e73666572206661696c65640000000000000000604482015260640161039d565b60068401546040516001600160a01b0390911690611af8908790612439565b6040805191829003822060058801548352426020840152917fd5ae82b0bff1c59489877aebb0325297eb8159bd95c90db5b3f4792371376676910160405180910390a3600060058501555b50505050611b5060018055565b50565b611b5b611d15565b6001600160a01b038116611ba35760405162461bcd60e51b815260206004820152600f60248201526e496e76616c6964206164647265737360881b604482015260640161039d565b600380546001600160a01b0319166001600160a01b0392909216919091179055565b81516020818401810180516007825292820191850191909120919052805482908110611bf057600080fd5b600091825260209091206004909102018054600182015460028301546003840180546001600160a01b0390941696509194509291611c2d90612482565b80601f0160208091040260200160405190810160405280929190818152602001828054611c5990612482565b8015611ca65780601f10611c7b57610100808354040283529160200191611ca6565b820191906000526020600020905b815481529060010190602001808311611c8957829003601f168201915b5050505050905084565b611cb8611d15565b6001600160a01b038116611ce257604051631e4fbdf760e01b81526000600482015260240161039d565b611b5081611d42565b600260015403611d0e57604051633ee5aeb560e01b815260040160405180910390fd5b6002600155565b6000546001600160a01b03163314610a135760405163118cdaa760e01b815233600482015260240161039d565b600080546001600160a01b038381166001600160a01b0319831681178455604051919092169283917f8be0079c531659141344cd1fd0a4f28419497f9722a3daafe3b4186f6b6457e09190a35050565b634e487b7160e01b600052604160045260246000fd5b604051601f8201601f1916810167ffffffffffffffff81118282101715611dd157611dd1611d92565b604052919050565b600082601f830112611dea57600080fd5b813567ffffffffffffffff811115611e0457611e04611d92565b611e17601f8201601f1916602001611da8565b818152846020838601011115611e2c57600080fd5b816020850160208301376000918101602001919091529392505050565b600060208284031215611e5b57600080fd5b813567ffffffffffffffff811115611e7257600080fd5b611e7e84828501611dd9565b949350505050565b60005b83811015611ea1578181015183820152602001611e89565b50506000910152565b60008151808452611ec2816020860160208601611e86565b601f01601f19169290920160200192915050565b60006020808301818452808551808352604092508286019150828160051b87010184880160005b83811015611f7257888303603f19018552815180516001600160a01b03168452878101518885015286810151878501526060808201519085015260808082015115159085015260a09081015160c091850182905290611f5e81860183611eaa565b968901969450505090860190600101611efd565b509098975050505050505050565b60008060408385031215611f9357600080fd5b823567ffffffffffffffff811115611faa57600080fd5b611fb685828601611dd9565b95602094909401359450505050565b600060208284031215611fd757600080fd5b5035919050565b6001600160a01b038a81168252610120602083018190526000916120048483018d611eaa565b604085019b909b5260608401999099525050608081019590955260a0850193909352931660c083015291151560e0820152610100015292915050565b60006020808301818452808551808352604092508286019150828160051b87010184880160005b83811015611f7257888303603f19018552815180516001600160a01b03168452878101518885015286810151878501526060908101516080918501829052906120b281860183611eaa565b968901969450505090860190600101612067565b600067ffffffffffffffff8211156120e0576120e0611d92565b5060051b60200190565b80356001600160a01b038116811461210157600080fd5b919050565b600082601f83011261211757600080fd5b8135602061212c612127836120c6565b611da8565b82815260059290921b8401810191818101908684111561214b57600080fd5b8286015b8481101561216d57612160816120ea565b835291830191830161214f565b509695505050505050565b600082601f83011261218957600080fd5b81356020612199612127836120c6565b82815260059290921b840181019181810190868411156121b857600080fd5b8286015b8481101561216d57803583529183019183016121bc565b600082601f8301126121e457600080fd5b813560206121f4612127836120c6565b82815260059290921b8401810191818101908684111561221357600080fd5b8286015b8481101561216d57803567ffffffffffffffff8111156122375760008081fd5b6122458986838b0101611dd9565b845250918301918301612217565b600080600080600080600080610100898b03121561227057600080fd5b883567ffffffffffffffff8082111561228857600080fd5b6122948c838d01611dd9565b995060208b0135985060408b0135975060608b01359150808211156122b857600080fd5b6122c48c838d01612106565b965060808b01359150808211156122da57600080fd5b6122e68c838d01612178565b955060a08b01359150808211156122fc57600080fd5b6123088c838d01612178565b945060c08b013591508082111561231e57600080fd5b5061232b8b828c016121d3565b92505061233a60e08a016120ea565b90509295985092959890939650565b60208152600061235c6020830184611eaa565b9392505050565b604080825283519082018190526000906020906060840190828701845b828110156123a55781516001600160a01b031684529284019290840190600101612380565b5050508381038285015284518082528583019183019060005b818110156123da578351835292840192918401916001016123be565b5090979650505050505050565b6000602082840312156123f957600080fd5b61235c826120ea565b60018060a01b038516815283602082015282604082015260806060820152600061242f6080830184611eaa565b9695505050505050565b6000825161244b818460208701611e86565b9190910192915050565b602080825260139082015272149bdb1948191bd95cc81b9bdd08195e1a5cdd606a1b604082015260600190565b600181811c9082168061249657607f821691505b6020821081036124b657634e487b7160e01b600052602260045260246000fd5b50919050565b6000602082840312156124ce57600080fd5b8151801515811461235c57600080fd5b634e487b7160e01b600052601160045260246000fd5b80820180821115612507576125076124de565b92915050565b60006001820161251f5761251f6124de565b5060010190565b60008451612538818460208901611e86565b84519083019061254c818360208901611e86565b845191019061255f818360208801611e86565b0195945050505050565b601f8211156125b357600081815260208120601f850160051c810160208610156125905750805b601f850160051c820191505b818110156125af5782815560010161259c565b5050505b505050565b815167ffffffffffffffff8111156125d2576125d2611d92565b6125e6816125e08454612482565b84612569565b602080601f83116001811461261b57600084156126035750858301515b600019600386901b1c1916600185901b1785556125af565b600085815260208120601f198616915b8281101561264a5788860151825594840194600190910190840161262b565b50858210156126685787850151600019600388901b60f8161c191681555b5050505050600190811b01905550565b634e487b7160e01b600052603260045260246000fd5b6040815260006126a16040830185611eaa565b90508260208301529392505050565b8082028115828204841417612507576125076124de565b6000826126e457634e487b7160e01b600052601260045260246000fd5b500490565b81810381811115612507576125076124de56fea26469706673582212205b4d9456db285ccc2fb812e4da0a787470905a1c8707d582d9e4b8159392d3d564736f6c63430008140033",
  "linkReferences": {},
  "deployedLinkReferences": {}
}