{
  "_format": "hh-sol-artifact-1",
  "contractName": "PaymentRole",
  "sourceName": "contracts/PaymentRole.sol",
  "abi": [
    {
      "inputs": [
        {
          "internalType": "address",
          "name": "_usdcAddress",
          "type": "address"
        },
        {
          "internalType": "address",
          "name": "_developerAddress",
          "type": "address"
        }
      ],
      "stateMutability": "nonpayable",
      "type": "constructor"
    },
    {
      "inputs": [
        {
          "internalType": "address",
          "name": "owner",
          "type": "address"
        }
      ],
      "name": "OwnableInvalidOwner",
      "type": "error"
    },
    {
      "inputs": [
        {
          "internalType": "address",
          "name": "account",
          "type": "address"
        }
      ],
      "name": "OwnableUnauthorizedAccount",
      "type": "error"
    },
    {
      "inputs": [],
      "name": "ReentrancyGuardReentrantCall",
      "type": "error"
    },
    {
      "anonymous": false,
      "inputs": [
        {
          "indexed": true,
          "internalType": "uint256",
          "name": "roleId",
          "type": "uint256"
        },
        {
          "indexed": false,
          "internalType": "uint256",
          "name": "oldExpiry",
          "type": "uint256"
        },
        {
          "indexed": false,
          "internalType": "uint256",
          "name": "newExpiry",
          "type": "uint256"
        }
      ],
      "name": "ExpiryExtended",
      "type": "event"
    },
    {
      "anonymous": false,
      "inputs": [
        {
          "indexed": true,
          "internalType": "uint256",
          "name": "roleId",
          "type": "uint256"
        },
        {
          "indexed": true,
          "internalType": "address",
          "name": "sender",
          "type": "address"
        },
        {
          "indexed": false,
          "internalType": "uint256",
          "name": "amount",
          "type": "uint256"
        }
      ],
      "name": "FundReceived",
      "type": "event"
    },
    {
      "anonymous": false,
      "inputs": [
        {
          "indexed": true,
          "internalType": "uint256",
          "name": "roleId",
          "type": "uint256"
        },
        {
          "indexed": true,
          "internalType": "address",
          "name": "recipient",
          "type": "address"
        },
        {
          "indexed": false,
          "internalType": "uint256",
          "name": "amount",
          "type": "uint256"
        }
      ],
      "name": "LeftoverTransferred",
      "type": "event"
    },
    {
      "anonymous": false,
      "inputs": [
        {
          "indexed": true,
          "internalType": "address",
          "name": "previousOwner",
          "type": "address"
        },
        {
          "indexed": true,
          "internalType": "address",
          "name": "newOwner",
          "type": "address"
        }
      ],
      "name": "OwnershipTransferred",
      "type": "event"
    },
    {
      "anonymous": false,
      "inputs": [
        {
          "indexed": true,
          "internalType": "uint256",
          "name": "roleId",
          "type": "uint256"
        },
        {
          "indexed": false,
          "internalType": "uint256",
          "name": "paymentIndex",
          "type": "uint256"
        },
        {
          "indexed": true,
          "internalType": "address",
          "name": "recipient",
          "type": "address"
        },
        {
          "indexed": false,
          "internalType": "uint256",
          "name": "oldScheduledTime",
          "type": "uint256"
        },
        {
          "indexed": false,
          "internalType": "uint256",
          "name": "newScheduledTime",
          "type": "uint256"
        }
      ],
      "name": "PaymentDeadlineExtended",
      "type": "event"
    },
    {
      "anonymous": false,
      "inputs": [
        {
          "indexed": true,
          "internalType": "uint256",
          "name": "roleId",
          "type": "uint256"
        },
        {
          "indexed": true,
          "internalType": "address",
          "name": "recipient",
          "type": "address"
        },
        {
          "indexed": false,
          "internalType": "uint256",
          "name": "amount",
          "type": "uint256"
        },
        {
          "indexed": false,
          "internalType": "uint256",
          "name": "timestamp",
          "type": "uint256"
        }
      ],
      "name": "PaymentExecuted",
      "type": "event"
    },
    {
      "anonymous": false,
      "inputs": [
        {
          "indexed": true,
          "internalType": "uint256",
          "name": "roleId",
          "type": "uint256"
        },
        {
          "indexed": false,
          "internalType": "string",
          "name": "name",
          "type": "string"
        },
        {
          "indexed": true,
          "internalType": "address",
          "name": "creator",
          "type": "address"
        },
        {
          "indexed": false,
          "internalType": "uint256",
          "name": "startTime",
          "type": "uint256"
        },
        {
          "indexed": false,
          "internalType": "uint256",
          "name": "expiryTime",
          "type": "uint256"
        }
      ],
      "name": "RoleCreated",
      "type": "event"
    },
    {
      "inputs": [],
      "name": "BASIS_POINTS",
      "outputs": [
        {
          "internalType": "uint256",
          "name": "",
          "type": "uint256"
        }
      ],
      "stateMutability": "view",
      "type": "function"
    },
    {
      "inputs": [],
      "name": "DEVELOPER_FEE_PERCENT",
      "outputs": [
        {
          "internalType": "uint256",
          "name": "",
          "type": "uint256"
        }
      ],
      "stateMutability": "view",
      "type": "function"
    },
    {
      "inputs": [
        {
          "internalType": "string",
          "name": "name",
          "type": "string"
        },
        {
          "internalType": "uint256",
          "name": "startTime",
          "type": "uint256"
        },
        {
          "internalType": "uint256",
          "name": "expiryTime",
          "type": "uint256"
        },
        {
          "internalType": "address[]",
          "name": "recipients",
          "type": "address[]"
        },
        {
          "internalType": "uint256[]",
          "name": "amounts",
          "type": "uint256[]"
        },
        {
          "internalType": "uint256[]",
          "name": "scheduledTimes",
          "type": "uint256[]"
        },
        {
          "internalType": "address",
          "name": "leftoverRecipient",
          "type": "address"
        },
        {
          "internalType": "uint256",
          "name": "developerFee",
          "type": "uint256"
        }
      ],
      "name": "createRole",
      "outputs": [
        {
          "internalType": "uint256",
          "name": "",
          "type": "uint256"
        }
      ],
      "stateMutability": "nonpayable",
      "type": "function"
    },
    {
      "inputs": [],
      "name": "developerAddress",
      "outputs": [
        {
          "internalType": "address",
          "name": "",
          "type": "address"
        }
      ],
      "stateMutability": "view",
      "type": "function"
    },
    {
      "inputs": [
        {
          "internalType": "uint256",
          "name": "roleId",
          "type": "uint256"
        }
      ],
      "name": "executeExpiry",
      "outputs": [],
      "stateMutability": "nonpayable",
      "type": "function"
    },
    {
      "inputs": [
        {
          "internalType": "uint256",
          "name": "roleId",
          "type": "uint256"
        }
      ],
      "name": "executePayments",
      "outputs": [],
      "stateMutability": "nonpayable",
      "type": "function"
    },
    {
      "inputs": [
        {
          "internalType": "uint256",
          "name": "roleId",
          "type": "uint256"
        },
        {
          "internalType": "uint256",
          "name": "newExpiryTime",
          "type": "uint256"
        }
      ],
      "name": "extendExpiry",
      "outputs": [],
      "stateMutability": "nonpayable",
      "type": "function"
    },
    {
      "inputs": [
        {
          "internalType": "uint256",
          "name": "roleId",
          "type": "uint256"
        },
        {
          "internalType": "uint256",
          "name": "paymentIndex",
          "type": "uint256"
        },
        {
          "internalType": "uint256",
          "name": "newScheduledTime",
          "type": "uint256"
        }
      ],
      "name": "extendPaymentDeadline",
      "outputs": [],
      "stateMutability": "nonpayable",
      "type": "function"
    },
    {
      "inputs": [
        {
          "internalType": "uint256",
          "name": "roleId",
          "type": "uint256"
        },
        {
          "internalType": "uint256",
          "name": "amount",
          "type": "uint256"
        }
      ],
      "name": "fundRole",
      "outputs": [],
      "stateMutability": "nonpayable",
      "type": "function"
    },
    {
      "inputs": [
        {
          "internalType": "uint256",
          "name": "roleId",
          "type": "uint256"
        }
      ],
      "name": "getAllPayments",
      "outputs": [
        {
          "components": [
            {
              "internalType": "address",
              "name": "recipient",
              "type": "address"
            },
            {
              "internalType": "uint256",
              "name": "amount",
              "type": "uint256"
            },
            {
              "internalType": "uint256",
              "name": "scheduledTime",
              "type": "uint256"
            },
            {
              "internalType": "bool",
              "name": "executed",
              "type": "bool"
            }
          ],
          "internalType": "struct PaymentRole.Payment[]",
          "name": "",
          "type": "tuple[]"
        }
      ],
      "stateMutability": "view",
      "type": "function"
    },
    {
      "inputs": [
        {
          "internalType": "uint256",
          "name": "roleId",
          "type": "uint256"
        },
        {
          "internalType": "uint256",
          "name": "paymentIndex",
          "type": "uint256"
        }
      ],
      "name": "getPayment",
      "outputs": [
        {
          "internalType": "address",
          "name": "recipient",
          "type": "address"
        },
        {
          "internalType": "uint256",
          "name": "amount",
          "type": "uint256"
        },
        {
          "internalType": "uint256",
          "name": "scheduledTime",
          "type": "uint256"
        },
        {
          "internalType": "bool",
          "name": "executed",
          "type": "bool"
        }
      ],
      "stateMutability": "view",
      "type": "function"
    },
    {
      "inputs": [
        {
          "internalType": "uint256",
          "name": "roleId",
          "type": "uint256"
        }
      ],
      "name": "getRole",
      "outputs": [
        {
          "internalType": "address",
          "name": "owner",
          "type": "address"
        },
        {
          "internalType": "string",
          "name": "name",
          "type": "string"
        },
        {
          "internalType": "uint256",
          "name": "startTime",
          "type": "uint256"
        },
        {
          "internalType": "uint256",
          "name": "expiryTime",
          "type": "uint256"
        },
        {
          "internalType": "uint256",
          "name": "totalFunded",
          "type": "uint256"
        },
        {
          "internalType": "uint256",
          "name": "remainingBalance",
          "type": "uint256"
        },
        {
          "internalType": "uint256",
          "name": "paymentCount",
          "type": "uint256"
        }
      ],
      "stateMutability": "view",
      "type": "function"
    },
    {
      "inputs": [],
      "name": "owner",
      "outputs": [
        {
          "internalType": "address",
          "name": "",
          "type": "address"
        }
      ],
      "stateMutability": "view",
      "type": "function"
    },
    {
      "inputs": [],
      "name": "renounceOwnership",
      "outputs": [],
      "stateMutability": "nonpayable",
      "type": "function"
    },
    {
      "inputs": [],
      "name": "roleCount",
      "outputs": [
        {
          "internalType": "uint256",
          "name": "",
          "type": "uint256"
        }
      ],
      "stateMutability": "view",
      "type": "function"
    },
    {
      "inputs": [
        {
          "internalType": "uint256",
          "name": "",
          "type": "uint256"
        }
      ],
      "name": "roles",
      "outputs": [
        {
          "internalType": "address",
          "name": "owner",
          "type": "address"
        },
        {
          "internalType": "string",
          "name": "name",
          "type": "string"
        },
        {
          "internalType": "uint256",
          "name": "startTime",
          "type": "uint256"
        },
        {
          "internalType": "uint256",
          "name": "expiryTime",
          "type": "uint256"
        },
        {
          "internalType": "address",
          "name": "leftoverRecipient",
          "type": "address"
        },
        {
          "internalType": "uint256",
          "name": "totalFunded",
          "type": "uint256"
        },
        {
          "internalType": "uint256",
          "name": "remainingBalance",
          "type": "uint256"
        }
      ],
      "stateMutability": "view",
      "type": "function"
    },
    {
      "inputs": [
        {
          "internalType": "address",
          "name": "newOwner",
          "type": "address"
        }
      ],
      "name": "transferOwnership",
      "outputs": [],
      "stateMutability": "nonpayable",
      "type": "function"
    },
    {
      "inputs": [],
      "name": "usdc",
      "outputs": [
        {
          "internalType": "contract IERC20",
          "name": "",
          "type": "address"
        }
      ],
      "stateMutability": "view",
      "type": "function"
    }
  ],
  "bytecode": "0x60c06040523480156200001157600080fd5b5060405162002171380380620021718339810160408190526200003491620001a1565b33806200005c57604051631e4fbdf760e01b8152600060048201526024015b60405180910390fd5b620000678162000134565b50600180556001600160a01b038216620000c45760405162461bcd60e51b815260206004820152601460248201527f496e76616c696420555344432061646472657373000000000000000000000000604482015260640162000053565b6001600160a01b0381166200011c5760405162461bcd60e51b815260206004820152601960248201527f496e76616c696420646576656c6f706572206164647265737300000000000000604482015260640162000053565b6001600160a01b039182166080521660a052620001d9565b600080546001600160a01b038381166001600160a01b0319831681178455604051919092169283917f8be0079c531659141344cd1fd0a4f28419497f9722a3daafe3b4186f6b6457e09190a35050565b80516001600160a01b03811681146200019c57600080fd5b919050565b60008060408385031215620001b557600080fd5b620001c08362000184565b9150620001d06020840162000184565b90509250929050565b60805160a051611f48620002296000396000818161026c0152610c3f01526000818161013b015281816106330152818161078a01528181610c6e015281816113a601526115a30152611f486000f3fe608060405234801561001057600080fd5b50600436106101165760003560e01c8063bfda4a49116100a2578063dfcb124111610071578063dfcb124114610297578063e1f1c4a7146102aa578063e82e500d146102b3578063f2fde38b146102c6578063f681e6f1146102d957600080fd5b8063bfda4a491461022e578063c3cab38a14610254578063caccd7f714610267578063ddf963581461028e57600080fd5b8063715018a6116100e9578063715018a6146101da57806373a3bc70146101e45780638006ec7e146101f75780638da5cb5b1461020a5780639bc959151461021b57600080fd5b806314dd2cd11461011b5780633e413bee146101365780635312fdc2146101755780635a825cbb1461019b575b600080fd5b610123606481565b6040519081526020015b60405180910390f35b61015d7f000000000000000000000000000000000000000000000000000000000000000081565b6040516001600160a01b03909116815260200161012d565b610188610183366004611872565b6102f9565b60405161012d97969594939291906118d1565b6101ae6101a936600461191f565b610418565b604080516001600160a01b0390951685526020850193909352918301521515606082015260800161012d565b6101e26104f0565b005b6101e26101f2366004611872565b610504565b6101e2610205366004611941565b61089a565b6000546001600160a01b031661015d565b610123610229366004611b31565b610af8565b61024161023c366004611872565b61104b565b60405161012d9796959493929190611c0c565b6101e261026236600461191f565b611122565b61015d7f000000000000000000000000000000000000000000000000000000000000000081565b61012360035481565b6101e26102a5366004611872565b611269565b61012361271081565b6101e26102c136600461191f565b6114c7565b6101e26102d4366004611c57565b6116d4565b6102ec6102e7366004611872565b61170f565b60405161012d9190611c79565b600060606000806000806000600354881061032f5760405162461bcd60e51b815260040161032690611ce8565b60405180910390fd5b6000888152600260208190526040909120805491810154600382015460068301546007840154600485015460018601805496976001600160a01b03169690959493929190869061037e90611d11565b80601f01602080910402602001604051908101604052809291908181526020018280546103aa90611d11565b80156103f75780601f106103cc576101008083540402835291602001916103f7565b820191906000526020600020905b8154815290600101906020018083116103da57829003601f168201915b50505050509550975097509750975097509750975050919395979092949650565b600080600080600354861061043f5760405162461bcd60e51b815260040161032690611ce8565b6000868152600260205260409020600481015486106104985760405162461bcd60e51b8152602060048201526015602482015274092dcecc2d8d2c840e0c2f2dacadce840d2dcc8caf605b1b6044820152606401610326565b60008160040187815481106104af576104af611d4b565b600091825260209091206004909102018054600182015460028301546003909301546001600160a01b039092169b909a5091985060ff169650945050505050565b6104f86117cb565b61050260006117f8565b565b61050c611848565b600354811061052d5760405162461bcd60e51b815260040161032690611ce8565b60008181526002602052604090206003810154421161057c5760405162461bcd60e51b815260206004820152600b60248201526a139bdd08195e1c1a5c995960aa1b6044820152606401610326565b60005b60048201548110156107495760008260040182815481106105a2576105a2611d4b565b60009182526020909120600490910201600381015490915060ff161580156105d257508060010154836007015410155b156107365760038101805460ff19166001908117909155810154600784018054600090610600908490611d77565b90915550508054600182015460405163a9059cbb60e01b81526001600160a01b03928316600482015260248101919091527f00000000000000000000000000000000000000000000000000000000000000009091169063a9059cbb906044016020604051808303816000875af115801561067e573d6000803e3d6000fd5b505050506040513d601f19601f820116820180604052508101906106a29190611d90565b6106e85760405162461bcd60e51b815260206004820152601760248201527614185e5b595b9d081d1c985b9cd9995c8819985a5b1959604a1b6044820152606401610326565b80546001820154604080519182524260208301526001600160a01b039092169186917fcd19bb5d0157296d4f7382afb5c2308f7413979d682b76af1d187c8bd78b1c35910160405180910390a35b508061074181611db2565b91505061057f565b5060078101541561088d576007810180546000909155600582015460405163a9059cbb60e01b81526001600160a01b039182166004820152602481018390527f00000000000000000000000000000000000000000000000000000000000000009091169063a9059cbb906044016020604051808303816000875af11580156107d5573d6000803e3d6000fd5b505050506040513d601f19601f820116820180604052508101906107f99190611d90565b6108455760405162461bcd60e51b815260206004820152601860248201527f4c6566746f766572207472616e73666572206661696c656400000000000000006044820152606401610326565b60058201546040518281526001600160a01b039091169084907f4b3a6ad948e4b7e1b196bfd961712198a7382b6163d543bba9c474bdeb8dfd859060200160405180910390a3505b5061089760018055565b50565b60035483106108bb5760405162461bcd60e51b815260040161032690611ce8565b600083815260026020526040902080546001600160a01b0316331461090e5760405162461bcd60e51b81526020600482015260096024820152682737ba1037bbb732b960b91b6044820152606401610326565b806003015442106109505760405162461bcd60e51b815260206004820152600c60248201526b149bdb1948195e1c1a5c995960a21b6044820152606401610326565b6004810154831061099b5760405162461bcd60e51b8152602060048201526015602482015274092dcecc2d8d2c840e0c2f2dacadce840d2dcc8caf605b1b6044820152606401610326565b60008160040184815481106109b2576109b2611d4b565b60009182526020909120600490910201600381015490915060ff1615610a0d5760405162461bcd60e51b815260206004820152601060248201526f105b1c9958591e48195e1958dd5d195960821b6044820152606401610326565b80600201548311610a505760405162461bcd60e51b815260206004820152600d60248201526c26bab9ba103132903630ba32b960991b6044820152606401610326565b8160030154831115610a955760405162461bcd60e51b815260206004820152600e60248201526d457863656564732065787069727960901b6044820152606401610326565b60028101805490849055815460408051878152602081018490529081018690526001600160a01b039091169087907f0f1c29b734424ffb0977360b5a39176a84e385bfa4144e44cd45a3203e5408ac9060600160405180910390a3505050505050565b6000610b02611848565b868810610b465760405162461bcd60e51b8152602060048201526012602482015271496e76616c69642074696d652072616e676560701b6044820152606401610326565b8451865114610b895760405162461bcd60e51b815260206004820152600f60248201526e098cadccee8d040dad2e6dac2e8c6d608b1b6044820152606401610326565b8351855114610bcc5760405162461bcd60e51b815260206004820152600f60248201526e098cadccee8d040dad2e6dac2e8c6d608b1b6044820152606401610326565b6001600160a01b038316610c225760405162461bcd60e51b815260206004820152601a60248201527f496e76616c6964206c6566746f76657220726563697069656e740000000000006044820152606401610326565b6040516323b872dd60e01b81523360048201526001600160a01b037f000000000000000000000000000000000000000000000000000000000000000081166024830152604482018490527f000000000000000000000000000000000000000000000000000000000000000016906323b872dd906064016020604051808303816000875af1158015610cb7573d6000803e3d6000fd5b505050506040513d601f19601f82011682018060405250810190610cdb9190611d90565b610d275760405162461bcd60e51b815260206004820152601d60248201527f446576656c6f70657220666565207472616e73666572206661696c65640000006044820152606401610326565b6003805460009182610d3883611db2565b90915550600081815260026020526040902080546001600160a01b0319163317815590915060018101610d6b8c82611e1a565b50600281018a9055600381018990556005810180546001600160a01b0319166001600160a01b038716179055600060068201819055600782018190555b8851811015610fec5760006001600160a01b0316898281518110610dce57610dce611d4b565b60200260200101516001600160a01b031603610e205760405162461bcd60e51b8152602060048201526011602482015270125b9d985b1a59081c9958da5c1a595b9d607a1b6044820152606401610326565b6000888281518110610e3457610e34611d4b565b602002602001015111610e7a5760405162461bcd60e51b815260206004820152600e60248201526d125b9d985b1a5908185b5bdd5b9d60921b6044820152606401610326565b8a878281518110610e8d57610e8d611d4b565b602002602001015110158015610ebc575089878281518110610eb157610eb1611d4b565b602002602001015111155b610efb5760405162461bcd60e51b815260206004820152601060248201526f496e76616c6964207363686564756c6560801b6044820152606401610326565b8160040160405180608001604052808b8481518110610f1c57610f1c611d4b565b60200260200101516001600160a01b031681526020018a8481518110610f4457610f44611d4b565b60200260200101518152602001898481518110610f6357610f63611d4b565b6020908102919091018101518252600091810182905283546001808201865594835291819020835160049093020180546001600160a01b0319166001600160a01b039093169290921782558201519281019290925560408101516002830155606001516003909101805460ff191691151591909117905580610fe481611db2565b915050610da8565b50336001600160a01b0316827f83d21464c40321b4a188ec45add16b9bca7d71d400bf35d44f6590ce37a56aa88d8d8d60405161102b93929190611eda565b60405180910390a350905061103f60018055565b98975050505050505050565b600260205260009081526040902080546001820180546001600160a01b03909216929161107790611d11565b80601f01602080910402602001604051908101604052809291908181526020018280546110a390611d11565b80156110f05780601f106110c5576101008083540402835291602001916110f0565b820191906000526020600020905b8154815290600101906020018083116110d357829003601f168201915b5050506002840154600385015460058601546006870154600790970154959692959194506001600160a01b0316925087565b60035482106111435760405162461bcd60e51b815260040161032690611ce8565b600082815260026020526040902080546001600160a01b031633146111965760405162461bcd60e51b81526020600482015260096024820152682737ba1037bbb732b960b91b6044820152606401610326565b806003015442106111db5760405162461bcd60e51b815260206004820152600f60248201526e105b1c9958591e48195e1c1a5c9959608a1b6044820152606401610326565b8060030154821161121e5760405162461bcd60e51b815260206004820152600d60248201526c26bab9ba103132903630ba32b960991b6044820152606401610326565b60038101805490839055604080518281526020810185905285917f3287cefee7cb991600759f399230be769bba7f54aa4b174939002c8854144ac0910160405180910390a250505050565b611271611848565b60035481106112925760405162461bcd60e51b815260040161032690611ce8565b6000818152600260208190526040909120908101544210156112e45760405162461bcd60e51b815260206004820152600b60248201526a139bdd081cdd185c9d195960aa1b6044820152606401610326565b60005b60048201548110156114bc57600082600401828154811061130a5761130a611d4b565b60009182526020909120600490910201600381015490915060ff16158015611336575080600201544210155b156114a95780600101548360070154106114a95760038101805460ff19166001908117909155810154600784018054600090611373908490611d77565b90915550508054600182015460405163a9059cbb60e01b81526001600160a01b03928316600482015260248101919091527f00000000000000000000000000000000000000000000000000000000000000009091169063a9059cbb906044016020604051808303816000875af11580156113f1573d6000803e3d6000fd5b505050506040513d601f19601f820116820180604052508101906114159190611d90565b61145b5760405162461bcd60e51b815260206004820152601760248201527614185e5b595b9d081d1c985b9cd9995c8819985a5b1959604a1b6044820152606401610326565b80546001820154604080519182524260208301526001600160a01b039092169186917fcd19bb5d0157296d4f7382afb5c2308f7413979d682b76af1d187c8bd78b1c35910160405180910390a35b50806114b481611db2565b9150506112e7565b505061089760018055565b6114cf611848565b60035482106114f05760405162461bcd60e51b815260040161032690611ce8565b600081116115315760405162461bcd60e51b815260206004820152600e60248201526d125b9d985b1a5908185b5bdd5b9d60921b6044820152606401610326565b6000828152600260205260409020600381015442106115815760405162461bcd60e51b815260206004820152600c60248201526b149bdb1948195e1c1a5c995960a21b6044820152606401610326565b6040516323b872dd60e01b8152336004820152306024820152604481018390527f00000000000000000000000000000000000000000000000000000000000000006001600160a01b0316906323b872dd906064016020604051808303816000875af11580156115f4573d6000803e3d6000fd5b505050506040513d601f19601f820116820180604052508101906116189190611d90565b61165b5760405162461bcd60e51b81526020600482015260146024820152731554d110c81d1c985b9cd9995c8819985a5b195960621b6044820152606401610326565b8181600601600082825461166f9190611eff565b925050819055508181600701600082825461168a9190611eff565b9091555050604051828152339084907f57e19e2aa06e728bbca970637be628efcda39018466d09026b4d04232479acb89060200160405180910390a3506116d060018055565b5050565b6116dc6117cb565b6001600160a01b03811661170657604051631e4fbdf760e01b815260006004820152602401610326565b610897816117f8565b606060035482106117325760405162461bcd60e51b815260040161032690611ce8565b600082815260026020908152604080832060040180548251818502810185019093528083529193909284015b828210156117c0576000848152602090819020604080516080810182526004860290920180546001600160a01b03168352600180820154848601526002820154928401929092526003015460ff1615156060830152908352909201910161175e565b505050509050919050565b6000546001600160a01b031633146105025760405163118cdaa760e01b8152336004820152602401610326565b600080546001600160a01b038381166001600160a01b0319831681178455604051919092169283917f8be0079c531659141344cd1fd0a4f28419497f9722a3daafe3b4186f6b6457e09190a35050565b60026001540361186b57604051633ee5aeb560e01b815260040160405180910390fd5b6002600155565b60006020828403121561188457600080fd5b5035919050565b6000815180845260005b818110156118b157602081850181015186830182015201611895565b506000602082860101526020601f19601f83011685010191505092915050565b6001600160a01b038816815260e0602082018190526000906118f59083018961188b565b6040830197909752506060810194909452608084019290925260a083015260c09091015292915050565b6000806040838503121561193257600080fd5b50508035926020909101359150565b60008060006060848603121561195657600080fd5b505081359360208301359350604090920135919050565b634e487b7160e01b600052604160045260246000fd5b604051601f8201601f1916810167ffffffffffffffff811182821017156119ac576119ac61196d565b604052919050565b600082601f8301126119c557600080fd5b813567ffffffffffffffff8111156119df576119df61196d565b6119f2601f8201601f1916602001611983565b818152846020838601011115611a0757600080fd5b816020850160208301376000918101602001919091529392505050565b600067ffffffffffffffff821115611a3e57611a3e61196d565b5060051b60200190565b80356001600160a01b0381168114611a5f57600080fd5b919050565b600082601f830112611a7557600080fd5b81356020611a8a611a8583611a24565b611983565b82815260059290921b84018101918181019086841115611aa957600080fd5b8286015b84811015611acb57611abe81611a48565b8352918301918301611aad565b509695505050505050565b600082601f830112611ae757600080fd5b81356020611af7611a8583611a24565b82815260059290921b84018101918181019086841115611b1657600080fd5b8286015b84811015611acb5780358352918301918301611b1a565b600080600080600080600080610100898b031215611b4e57600080fd5b883567ffffffffffffffff80821115611b6657600080fd5b611b728c838d016119b4565b995060208b0135985060408b0135975060608b0135915080821115611b9657600080fd5b611ba28c838d01611a64565b965060808b0135915080821115611bb857600080fd5b611bc48c838d01611ad6565b955060a08b0135915080821115611bda57600080fd5b50611be78b828c01611ad6565b935050611bf660c08a01611a48565b915060e089013590509295985092959890939650565b600060018060a01b03808a16835260e06020840152611c2e60e084018a61188b565b604084019890985260608301969096525092909316608083015260a082015260c0015292915050565b600060208284031215611c6957600080fd5b611c7282611a48565b9392505050565b602080825282518282018190526000919060409081850190868401855b82811015611cdb57815180516001600160a01b031685528681015187860152858101518686015260609081015115159085015260809093019290850190600101611c96565b5091979650505050505050565b6020808252600f908201526e125b9d985b1a59081c9bdb19481251608a1b604082015260600190565b600181811c90821680611d2557607f821691505b602082108103611d4557634e487b7160e01b600052602260045260246000fd5b50919050565b634e487b7160e01b600052603260045260246000fd5b634e487b7160e01b600052601160045260246000fd5b81810381811115611d8a57611d8a611d61565b92915050565b600060208284031215611da257600080fd5b81518015158114611c7257600080fd5b600060018201611dc457611dc4611d61565b5060010190565b601f821115611e1557600081815260208120601f850160051c81016020861015611df25750805b601f850160051c820191505b81811015611e1157828155600101611dfe565b5050505b505050565b815167ffffffffffffffff811115611e3457611e3461196d565b611e4881611e428454611d11565b84611dcb565b602080601f831160018114611e7d5760008415611e655750858301515b600019600386901b1c1916600185901b178555611e11565b600085815260208120601f198616915b82811015611eac57888601518255948401946001909101908401611e8d565b5085821015611eca5787850151600019600388901b60f8161c191681555b5050505050600190811b01905550565b606081526000611eed606083018661188b565b60208301949094525060400152919050565b80820180821115611d8a57611d8a611d6156fea2646970667358221220eb47f9f8a2e87b292e07eb04d2fa6dbfa5042d67ecbe28f4ff14e04266eead5764736f6c63430008140033",
  "linkReferences": {},
  "deployedLinkReferences": {}
}